{
  "contractName": "Medicine",
  "abi": [
    {
      "inputs": [
        {
          "internalType": "uint256",
          "name": "",
          "type": "uint256"
        }
      ],
      "name": "medicineItems",
      "outputs": [
        {
          "internalType": "uint256",
          "name": "medicineId",
          "type": "uint256"
        },
        {
          "internalType": "bytes32",
          "name": "medicineBatch",
          "type": "bytes32"
        },
        {
          "internalType": "bytes32",
          "name": "medicineName",
          "type": "bytes32"
        },
        {
          "internalType": "bytes32",
          "name": "medicineBrand",
          "type": "bytes32"
        },
        {
          "internalType": "uint256",
          "name": "medicinePrice",
          "type": "uint256"
        },
        {
          "internalType": "bytes32",
          "name": "medicineStatus",
          "type": "bytes32"
        },
        {
          "internalType": "bytes32",
          "name": "expiryDate",
          "type": "bytes32"
        },
        {
          "internalType": "bytes32",
          "name": "composition",
          "type": "bytes32"
        }
      ],
      "stateMutability": "view",
      "type": "function"
    },
    {
      "inputs": [
        {
          "internalType": "bytes32",
          "name": "",
          "type": "bytes32"
        }
      ],
      "name": "medicineMap",
      "outputs": [
        {
          "internalType": "uint256",
          "name": "",
          "type": "uint256"
        }
      ],
      "stateMutability": "view",
      "type": "function"
    },
    {
      "inputs": [
        {
          "internalType": "bytes32",
          "name": "",
          "type": "bytes32"
        }
      ],
      "name": "medicinesForSale",
      "outputs": [
        {
          "internalType": "bytes32",
          "name": "",
          "type": "bytes32"
        }
      ],
      "stateMutability": "view",
      "type": "function"
    },
    {
      "inputs": [
        {
          "internalType": "bytes32",
          "name": "",
          "type": "bytes32"
        }
      ],
      "name": "medicinesManufactured",
      "outputs": [
        {
          "internalType": "bytes32",
          "name": "",
          "type": "bytes32"
        }
      ],
      "stateMutability": "view",
      "type": "function"
    },
    {
      "inputs": [
        {
          "internalType": "bytes32",
          "name": "",
          "type": "bytes32"
        }
      ],
      "name": "medicinesSold",
      "outputs": [
        {
          "internalType": "bytes32",
          "name": "",
          "type": "bytes32"
        }
      ],
      "stateMutability": "view",
      "type": "function"
    },
    {
      "inputs": [
        {
          "internalType": "bytes32",
          "name": "",
          "type": "bytes32"
        },
        {
          "internalType": "uint256",
          "name": "",
          "type": "uint256"
        }
      ],
      "name": "medicinesWithPatient",
      "outputs": [
        {
          "internalType": "bytes32",
          "name": "",
          "type": "bytes32"
        }
      ],
      "stateMutability": "view",
      "type": "function"
    },
    {
      "inputs": [
        {
          "internalType": "bytes32",
          "name": "",
          "type": "bytes32"
        },
        {
          "internalType": "uint256",
          "name": "",
          "type": "uint256"
        }
      ],
      "name": "medicinesWithPharmacy",
      "outputs": [
        {
          "internalType": "bytes32",
          "name": "",
          "type": "bytes32"
        }
      ],
      "stateMutability": "view",
      "type": "function"
    },
    {
      "inputs": [
        {
          "internalType": "uint256",
          "name": "",
          "type": "uint256"
        }
      ],
      "name": "pharmacies",
      "outputs": [
        {
          "internalType": "uint256",
          "name": "pharmacyId",
          "type": "uint256"
        },
        {
          "internalType": "bytes32",
          "name": "pharmacyName",
          "type": "bytes32"
        },
        {
          "internalType": "bytes32",
          "name": "pharmacyLicense",
          "type": "bytes32"
        },
        {
          "internalType": "bytes32",
          "name": "pharmacyCode",
          "type": "bytes32"
        },
        {
          "internalType": "uint256",
          "name": "pharmacyPhone",
          "type": "uint256"
        },
        {
          "internalType": "bytes32",
          "name": "pharmacistName",
          "type": "bytes32"
        },
        {
          "internalType": "bytes32",
          "name": "pharmacyAddress",
          "type": "bytes32"
        }
      ],
      "stateMutability": "view",
      "type": "function"
    },
    {
      "inputs": [
        {
          "internalType": "bytes32",
          "name": "",
          "type": "bytes32"
        },
        {
          "internalType": "uint256",
          "name": "",
          "type": "uint256"
        }
      ],
      "name": "pharmaciesWithManufacturer",
      "outputs": [
        {
          "internalType": "bytes32",
          "name": "",
          "type": "bytes32"
        }
      ],
      "stateMutability": "view",
      "type": "function"
    },
    {
      "inputs": [
        {
          "internalType": "bytes32",
          "name": "_manufacturerId",
          "type": "bytes32"
        },
        {
          "internalType": "bytes32",
          "name": "_pharmacyName",
          "type": "bytes32"
        },
        {
          "internalType": "bytes32",
          "name": "_pharmacyLicense",
          "type": "bytes32"
        },
        {
          "internalType": "bytes32",
          "name": "_pharmacyCode",
          "type": "bytes32"
        },
        {
          "internalType": "uint256",
          "name": "_pharmacyPhone",
          "type": "uint256"
        },
        {
          "internalType": "bytes32",
          "name": "_pharmacistName",
          "type": "bytes32"
        },
        {
          "internalType": "bytes32",
          "name": "_pharmacyAddress",
          "type": "bytes32"
        }
      ],
      "name": "addPharmacy",
      "outputs": [],
      "stateMutability": "nonpayable",
      "type": "function"
    },
    {
      "inputs": [],
      "name": "viewPharmacies",
      "outputs": [
        {
          "internalType": "uint256[]",
          "name": "",
          "type": "uint256[]"
        },
        {
          "internalType": "bytes32[]",
          "name": "",
          "type": "bytes32[]"
        },
        {
          "internalType": "bytes32[]",
          "name": "",
          "type": "bytes32[]"
        },
        {
          "internalType": "bytes32[]",
          "name": "",
          "type": "bytes32[]"
        },
        {
          "internalType": "uint256[]",
          "name": "",
          "type": "uint256[]"
        },
        {
          "internalType": "bytes32[]",
          "name": "",
          "type": "bytes32[]"
        },
        {
          "internalType": "bytes32[]",
          "name": "",
          "type": "bytes32[]"
        }
      ],
      "stateMutability": "view",
      "type": "function"
    },
    {
      "inputs": [
        {
          "internalType": "bytes32",
          "name": "_manufactuerID",
          "type": "bytes32"
        },
        {
          "internalType": "bytes32",
          "name": "_medicineName",
          "type": "bytes32"
        },
        {
          "internalType": "bytes32",
          "name": "_medicineBatch",
          "type": "bytes32"
        },
        {
          "internalType": "bytes32",
          "name": "_medicineBrand",
          "type": "bytes32"
        },
        {
          "internalType": "uint256",
          "name": "_medicinePrice",
          "type": "uint256"
        },
        {
          "internalType": "bytes32",
          "name": "_expiryDate",
          "type": "bytes32"
        },
        {
          "internalType": "bytes32",
          "name": "_composition",
          "type": "bytes32"
        }
      ],
      "name": "addMedicine",
      "outputs": [],
      "stateMutability": "nonpayable",
      "type": "function"
    },
    {
      "inputs": [],
      "name": "viewMedicineItems",
      "outputs": [
        {
          "internalType": "uint256[]",
          "name": "",
          "type": "uint256[]"
        },
        {
          "internalType": "bytes32[]",
          "name": "",
          "type": "bytes32[]"
        },
        {
          "internalType": "bytes32[]",
          "name": "",
          "type": "bytes32[]"
        },
        {
          "internalType": "bytes32[]",
          "name": "",
          "type": "bytes32[]"
        },
        {
          "internalType": "uint256[]",
          "name": "",
          "type": "uint256[]"
        },
        {
          "internalType": "bytes32[]",
          "name": "",
          "type": "bytes32[]"
        },
        {
          "internalType": "bytes32[]",
          "name": "",
          "type": "bytes32[]"
        },
        {
          "internalType": "bytes32[]",
          "name": "",
          "type": "bytes32[]"
        }
      ],
      "stateMutability": "view",
      "type": "function"
    },
    {
      "inputs": [
        {
          "internalType": "bytes32",
          "name": "_medicineBatch",
          "type": "bytes32"
        },
        {
          "internalType": "bytes32",
          "name": "_pharmacyCode",
          "type": "bytes32"
        }
      ],
      "name": "manufacturerSellMedicine",
      "outputs": [],
      "stateMutability": "nonpayable",
      "type": "function"
    },
    {
      "inputs": [
        {
          "internalType": "bytes32",
          "name": "_medicineBatch",
          "type": "bytes32"
        },
        {
          "internalType": "bytes32",
          "name": "_patientCode",
          "type": "bytes32"
        }
      ],
      "name": "pharmacySellMedicine",
      "outputs": [],
      "stateMutability": "nonpayable",
      "type": "function"
    },
    {
      "inputs": [
        {
          "internalType": "bytes32",
          "name": "_pharmacyCode",
          "type": "bytes32"
        }
      ],
      "name": "queryMedicinesBasicInfo",
      "outputs": [
        {
          "internalType": "uint256[]",
          "name": "",
          "type": "uint256[]"
        },
        {
          "internalType": "bytes32[]",
          "name": "",
          "type": "bytes32[]"
        },
        {
          "internalType": "bytes32[]",
          "name": "",
          "type": "bytes32[]"
        },
        {
          "internalType": "bytes32[]",
          "name": "",
          "type": "bytes32[]"
        },
        {
          "internalType": "uint256[]",
          "name": "",
          "type": "uint256[]"
        }
      ],
      "stateMutability": "view",
      "type": "function"
    },
    {
      "inputs": [
        {
          "internalType": "bytes32",
          "name": "_pharmacyCode",
          "type": "bytes32"
        }
      ],
      "name": "queryMedicinesDetailInfo",
      "outputs": [
        {
          "internalType": "bytes32[]",
          "name": "",
          "type": "bytes32[]"
        },
        {
          "internalType": "bytes32[]",
          "name": "",
          "type": "bytes32[]"
        },
        {
          "internalType": "bytes32[]",
          "name": "",
          "type": "bytes32[]"
        }
      ],
      "stateMutability": "view",
      "type": "function"
    },
    {
      "inputs": [
        {
          "internalType": "bytes32",
          "name": "_manufacturerCode",
          "type": "bytes32"
        }
      ],
      "name": "queryPharmaciesList",
      "outputs": [
        {
          "internalType": "uint256[]",
          "name": "",
          "type": "uint256[]"
        },
        {
          "internalType": "bytes32[]",
          "name": "",
          "type": "bytes32[]"
        },
        {
          "internalType": "bytes32[]",
          "name": "",
          "type": "bytes32[]"
        },
        {
          "internalType": "bytes32[]",
          "name": "",
          "type": "bytes32[]"
        },
        {
          "internalType": "uint256[]",
          "name": "",
          "type": "uint256[]"
        },
        {
          "internalType": "bytes32[]",
          "name": "",
          "type": "bytes32[]"
        },
        {
          "internalType": "bytes32[]",
          "name": "",
          "type": "bytes32[]"
        }
      ],
      "stateMutability": "view",
      "type": "function"
    },
    {
      "inputs": [
        {
          "internalType": "bytes32",
          "name": "_patientCode",
          "type": "bytes32"
        }
      ],
      "name": "getPurchaseHistory",
      "outputs": [
        {
          "internalType": "bytes32[]",
          "name": "",
          "type": "bytes32[]"
        },
        {
          "internalType": "bytes32[]",
          "name": "",
          "type": "bytes32[]"
        },
        {
          "internalType": "bytes32[]",
          "name": "",
          "type": "bytes32[]"
        }
      ],
      "stateMutability": "view",
      "type": "function"
    },
    {
      "inputs": [
        {
          "internalType": "bytes32",
          "name": "_medicineBatch",
          "type": "bytes32"
        },
        {
          "internalType": "bytes32",
          "name": "_patientCode",
          "type": "bytes32"
        }
      ],
      "name": "verifyMedicine",
      "outputs": [
        {
          "internalType": "bool",
          "name": "",
          "type": "bool"
        }
      ],
      "stateMutability": "view",
      "type": "function"
    }
  ],
  "bytecode": "0x608060405234801561001057600080fd5b50612724806100206000396000f3fe608060405234801561001057600080fd5b506004361061012c5760003560e01c80639c90e63f116100ad578063bbdde8ef11610071578063bbdde8ef146103b4578063c89ac209146103ea578063de15c8401461041a578063ebbf468e1461043e578063fff8a1bd1461046e5761012c565b80639c90e63f146102e85780639ea4695d14610304578063b0f2fd4f14610336578063b2bfc17a14610366578063bb968578146103825761012c565b806362ef9409116100f457806362ef94091461021a5780638a5acd731461024a5780638ba5233e146102805780639a992426146102b05780639b56e45f146102cc5761012c565b8063044c0032146101315780632e5e02cb14610161578063325532271461019557806339d32c85146101c55780635ebb74d4146101ea575b600080fd5b61014b60048036038101906101469190611f5b565b6104a5565b6040516101589190611fa1565b60405180910390f35b61017b60048036038101906101769190611f5b565b6104bd565b60405161018c959493929190612138565b60405180910390f35b6101af60048036038101906101aa91906121da565b61086c565b6040516101bc9190612229565b60405180910390f35b6101cd61089d565b6040516101e1989796959493929190612244565b60405180910390f35b61020460048036038101906101ff9190611f5b565b610d1c565b6040516102119190612229565b60405180910390f35b610234600480360381019061022f91906122fa565b610d34565b6040516102419190612355565b60405180910390f35b610264600480360381019061025f9190612370565b610d65565b604051610277979695949392919061239d565b60405180910390f35b61029a600480360381019061029591906121da565b610da7565b6040516102a79190612229565b60405180910390f35b6102ca60048036038101906102c5919061240c565b610dd8565b005b6102e660048036038101906102e191906122fa565b610eef565b005b61030260048036038101906102fd91906122fa565b610f45565b005b61031e60048036038101906103199190611f5b565b61106f565b60405161032d939291906124ae565b60405180910390f35b610350600480360381019061034b9190611f5b565b611243565b60405161035d9190612229565b60405180910390f35b610380600480360381019061037b919061240c565b61125b565b005b61039c60048036038101906103979190611f5b565b611347565b6040516103ab939291906124ae565b60405180910390f35b6103ce60048036038101906103c99190611f5b565b6115df565b6040516103e197969594939291906124fa565b60405180910390f35b61040460048036038101906103ff91906121da565b611aa2565b6040516104119190612229565b60405180910390f35b610422611ad3565b60405161043597969594939291906124fa565b60405180910390f35b61045860048036038101906104539190611f5b565b611ec0565b6040516104659190612229565b60405180910390f35b61048860048036038101906104839190612370565b611ed8565b60405161049c98979695949392919061259a565b60405180910390f35b60046020528060005260406000206000915090505481565b606080606080606060006008600088815260200190815260200160002080548060200260200160405190810160405280929190818152602001828054801561052457602002820191906000526020600020905b815481526020019060010190808311610510575b5050505050905060008060015467ffffffffffffffff81111561054a57610549612618565b5b6040519080825280602002602001820160405280156105785781602001602082028036833780820191505090505b509050600060015467ffffffffffffffff81111561059957610598612618565b5b6040519080825280602002602001820160405280156105c75781602001602082028036833780820191505090505b509050600060015467ffffffffffffffff8111156105e8576105e7612618565b5b6040519080825280602002602001820160405280156106165781602001602082028036833780820191505090505b509050600060015467ffffffffffffffff81111561063757610636612618565b5b6040519080825280602002602001820160405280156106655781602001602082028036833780820191505090505b509050600060015467ffffffffffffffff81111561068657610685612618565b5b6040519080825280602002602001820160405280156106b45781602001602082028036833780820191505090505b50905060005b60015481101561084c5760005b8851811015610838578881815181106106e3576106e2612647565b5b60200260200101516003600084815260200190815260200160002060010154141561082557600360008381526020019081526020016000206000015487898151811061073257610731612647565b5b602002602001018181525050600360008381526020019081526020016000206001015486898151811061076857610767612647565b5b602002602001018181525050600360008381526020019081526020016000206002015485898151811061079e5761079d612647565b5b60200260200101818152505060036000838152602001908152602001600020600301548489815181106107d4576107d3612647565b5b602002602001018181525050600360008381526020019081526020016000206004015483898151811061080a57610809612647565b5b6020026020010181815250508780610821906126a5565b9850505b8080610830906126a5565b9150506106c7565b508080610844906126a5565b9150506106ba565b5084848484849b509b509b509b509b505050505050505091939590929450565b6008602052816000526040600020818154811061088857600080fd5b90600052602060002001600091509150505481565b606080606080606080606080600060015467ffffffffffffffff8111156108c7576108c6612618565b5b6040519080825280602002602001820160405280156108f55781602001602082028036833780820191505090505b509050600060015467ffffffffffffffff81111561091657610915612618565b5b6040519080825280602002602001820160405280156109445781602001602082028036833780820191505090505b509050600060015467ffffffffffffffff81111561096557610964612618565b5b6040519080825280602002602001820160405280156109935781602001602082028036833780820191505090505b509050600060015467ffffffffffffffff8111156109b4576109b3612618565b5b6040519080825280602002602001820160405280156109e25781602001602082028036833780820191505090505b509050600060015467ffffffffffffffff811115610a0357610a02612618565b5b604051908082528060200260200182016040528015610a315781602001602082028036833780820191505090505b509050600060015467ffffffffffffffff811115610a5257610a51612618565b5b604051908082528060200260200182016040528015610a805781602001602082028036833780820191505090505b509050600060015467ffffffffffffffff811115610aa157610aa0612618565b5b604051908082528060200260200182016040528015610acf5781602001602082028036833780820191505090505b509050600060015467ffffffffffffffff811115610af057610aef612618565b5b604051908082528060200260200182016040528015610b1e5781602001602082028036833780820191505090505b50905060005b600154811015610cf1576003600082815260200190815260200160002060000154898281518110610b5857610b57612647565b5b6020026020010181815250506003600082815260200190815260200160002060010154888281518110610b8e57610b8d612647565b5b6020026020010181815250506003600082815260200190815260200160002060020154878281518110610bc457610bc3612647565b5b6020026020010181815250506003600082815260200190815260200160002060030154868281518110610bfa57610bf9612647565b5b6020026020010181815250506003600082815260200190815260200160002060040154858281518110610c3057610c2f612647565b5b6020026020010181815250506003600082815260200190815260200160002060050154848281518110610c6657610c65612647565b5b6020026020010181815250506003600082815260200190815260200160002060060154838281518110610c9c57610c9b612647565b5b6020026020010181815250506003600082815260200190815260200160002060070154828281518110610cd257610cd1612647565b5b6020026020010181815250508080610ce9906126a5565b915050610b24565b5087878787878787879f509f509f509f509f509f509f509f5050505050505050509091929394959697565b60056020528060005260406000206000915090505481565b60008160076000858152602001908152602001600020541415610d5a5760019050610d5f565b600090505b92915050565b60026020528060005260406000206000915090508060000154908060010154908060020154908060030154908060040154908060050154908060060154905087565b600a6020528160005260406000208181548110610dc357600080fd5b90600052602060002001600091509150505481565b60405180610100016040528060015481526020018681526020018781526020018581526020018481526020017f417661696c61626c650000000000000000000000000000000000000000000000815260200183815260200182815250600360006001548152602001908152602001600020600082015181600001556020820151816001015560408201518160020155606082015181600301556080820151816004015560a0820151816005015560c0820151816006015560e08201518160070155905050600154600460008781526020019081526020016000208190555060016000815480929190610ec9906126a5565b919050555086600560008781526020019081526020016000208190555050505050505050565b600860008281526020019081526020016000208290806001815401808255809150506001900390600052602060002001600090919091909150558060066000848152602001908152602001600020819055505050565b6000806000806001541115610f9957600091505b600154821015610f98578460036000848152602001908152602001600020600101541415610f85578190505b8180610f90906126a5565b925050610f59565b5b600360008281526020019081526020016000206005015492507f417661696c61626c650000000000000000000000000000000000000000000000831415611068577f536f6c64000000000000000000000000000000000000000000000000000000006003600083815260200190815260200160002060050181905550600960008581526020019081526020016000208590806001815401808255809150506001900390600052602060002001600090919091909150558360076000878152602001908152602001600020819055505b5050505050565b60608060606000600960008681526020019081526020016000208054806020026020016040519081016040528092919081815260200182805480156110d357602002820191906000526020600020905b8154815260200190600101908083116110bf575b505050505090506000815167ffffffffffffffff8111156110f7576110f6612618565b5b6040519080825280602002602001820160405280156111255781602001602082028036833780820191505090505b5090506000825167ffffffffffffffff81111561114557611144612618565b5b6040519080825280602002602001820160405280156111735781602001602082028036833780820191505090505b50905060005b835181101561122f576006600085838151811061119957611198612647565b5b60200260200101518152602001908152602001600020548382815181106111c3576111c2612647565b5b602002602001018181525050600560008583815181106111e6576111e5612647565b5b60200260200101518152602001908152602001600020548282815181106112105761120f612647565b5b6020026020010181815250508080611227906126a5565b915050611179565b508282829550955095505050509193909250565b60076020528060005260406000206000915090505481565b6040518060e001604052806000548152602001878152602001868152602001858152602001848152602001838152602001828152506002600080548152602001908152602001600020600082015181600001556020820151816001015560408201518160020155606082015181600301556080820151816004015560a0820151816005015560c082015181600601559050506000808154809291906112ff906126a5565b9190505550600a600088815260200190815260200160002084908060018154018082558091505060019003906000526020600020016000909190919091505550505050505050565b60608060606000600860008681526020019081526020016000208054806020026020016040519081016040528092919081815260200182805480156113ab57602002820191906000526020600020905b815481526020019060010190808311611397575b5050505050905060008060015467ffffffffffffffff8111156113d1576113d0612618565b5b6040519080825280602002602001820160405280156113ff5781602001602082028036833780820191505090505b509050600060015467ffffffffffffffff8111156114205761141f612618565b5b60405190808252806020026020018201604052801561144e5781602001602082028036833780820191505090505b509050600060015467ffffffffffffffff81111561146f5761146e612618565b5b60405190808252806020026020018201604052801561149d5781602001602082028036833780820191505090505b50905060005b6001548110156115c95760005b86518110156115b5578681815181106114cc576114cb612647565b5b6020026020010151600360008481526020019081526020016000206001015414156115a257600360008381526020019081526020016000206005015485878151811061151b5761151a612647565b5b602002602001018181525050600360008381526020019081526020016000206006015484878151811061155157611550612647565b5b602002602001018181525050600360008381526020019081526020016000206007015483878151811061158757611586612647565b5b602002602001018181525050858061159e906126a5565b9650505b80806115ad906126a5565b9150506114b0565b5080806115c1906126a5565b9150506114a3565b5082828297509750975050505050509193909250565b60608060608060608060606000600a60008a815260200190815260200160002080548060200260200160405190810160405280929190818152602001828054801561164957602002820191906000526020600020905b815481526020019060010190808311611635575b50505050509050600080805467ffffffffffffffff81111561166e5761166d612618565b5b60405190808252806020026020018201604052801561169c5781602001602082028036833780820191505090505b5090506000805467ffffffffffffffff8111156116bc576116bb612618565b5b6040519080825280602002602001820160405280156116ea5781602001602082028036833780820191505090505b5090506000805467ffffffffffffffff81111561170a57611709612618565b5b6040519080825280602002602001820160405280156117385781602001602082028036833780820191505090505b5090506000805467ffffffffffffffff81111561175857611757612618565b5b6040519080825280602002602001820160405280156117865781602001602082028036833780820191505090505b5090506000805467ffffffffffffffff8111156117a6576117a5612618565b5b6040519080825280602002602001820160405280156117d45781602001602082028036833780820191505090505b5090506000805467ffffffffffffffff8111156117f4576117f3612618565b5b6040519080825280602002602001820160405280156118225781602001602082028036833780820191505090505b5090506000805467ffffffffffffffff81111561184257611841612618565b5b6040519080825280602002602001820160405280156118705781602001602082028036833780820191505090505b50905060005b600054811015611a785760005b8a51811015611a64578a818151811061189f5761189e612647565b5b602002602001015160026000848152602001908152602001600020600301541415611a51576002600083815260200190815260200160002060000154898b815181106118ee576118ed612647565b5b6020026020010181815250506002600083815260200190815260200160002060010154888b8151811061192457611923612647565b5b6020026020010181815250506002600083815260200190815260200160002060020154878b8151811061195a57611959612647565b5b6020026020010181815250506002600083815260200190815260200160002060030154868b815181106119905761198f612647565b5b6020026020010181815250506002600083815260200190815260200160002060040154858b815181106119c6576119c5612647565b5b6020026020010181815250506002600083815260200190815260200160002060050154848b815181106119fc576119fb612647565b5b6020026020010181815250506002600083815260200190815260200160002060060154838b81518110611a3257611a31612647565b5b6020026020010181815250508980611a49906126a5565b9a5050611a64565b8080611a5c906126a5565b915050611883565b508080611a70906126a5565b915050611876565b50868686868686869f509f509f509f509f509f509f50505050505050505050919395979092949650565b60096020528160005260406000208181548110611abe57600080fd5b90600052602060002001600091509150505481565b60608060608060608060606000805467ffffffffffffffff811115611afb57611afa612618565b5b604051908082528060200260200182016040528015611b295781602001602082028036833780820191505090505b5090506000805467ffffffffffffffff811115611b4957611b48612618565b5b604051908082528060200260200182016040528015611b775781602001602082028036833780820191505090505b5090506000805467ffffffffffffffff811115611b9757611b96612618565b5b604051908082528060200260200182016040528015611bc55781602001602082028036833780820191505090505b5090506000805467ffffffffffffffff811115611be557611be4612618565b5b604051908082528060200260200182016040528015611c135781602001602082028036833780820191505090505b5090506000805467ffffffffffffffff811115611c3357611c32612618565b5b604051908082528060200260200182016040528015611c615781602001602082028036833780820191505090505b5090506000805467ffffffffffffffff811115611c8157611c80612618565b5b604051908082528060200260200182016040528015611caf5781602001602082028036833780820191505090505b5090506000805467ffffffffffffffff811115611ccf57611cce612618565b5b604051908082528060200260200182016040528015611cfd5781602001602082028036833780820191505090505b50905060005b600054811015611e9a576002600082815260200190815260200160002060000154888281518110611d3757611d36612647565b5b6020026020010181815250506002600082815260200190815260200160002060010154878281518110611d6d57611d6c612647565b5b6020026020010181815250506002600082815260200190815260200160002060020154868281518110611da357611da2612647565b5b6020026020010181815250506002600082815260200190815260200160002060030154858281518110611dd957611dd8612647565b5b6020026020010181815250506002600082815260200190815260200160002060040154848281518110611e0f57611e0e612647565b5b6020026020010181815250506002600082815260200190815260200160002060050154838281518110611e4557611e44612647565b5b6020026020010181815250506002600082815260200190815260200160002060060154828281518110611e7b57611e7a612647565b5b6020026020010181815250508080611e92906126a5565b915050611d03565b50868686868686869d509d509d509d509d509d509d505050505050505090919293949596565b60066020528060005260406000206000915090505481565b60036020528060005260406000206000915090508060000154908060010154908060020154908060030154908060040154908060050154908060060154908060070154905088565b600080fd5b6000819050919050565b611f3881611f25565b8114611f4357600080fd5b50565b600081359050611f5581611f2f565b92915050565b600060208284031215611f7157611f70611f20565b5b6000611f7f84828501611f46565b91505092915050565b6000819050919050565b611f9b81611f88565b82525050565b6000602082019050611fb66000830184611f92565b92915050565b600081519050919050565b600082825260208201905092915050565b6000819050602082019050919050565b611ff181611f88565b82525050565b60006120038383611fe8565b60208301905092915050565b6000602082019050919050565b600061202782611fbc565b6120318185611fc7565b935061203c83611fd8565b8060005b8381101561206d5781516120548882611ff7565b975061205f8361200f565b925050600181019050612040565b5085935050505092915050565b600081519050919050565b600082825260208201905092915050565b6000819050602082019050919050565b6120af81611f25565b82525050565b60006120c183836120a6565b60208301905092915050565b6000602082019050919050565b60006120e58261207a565b6120ef8185612085565b93506120fa83612096565b8060005b8381101561212b57815161211288826120b5565b975061211d836120cd565b9250506001810190506120fe565b5085935050505092915050565b600060a0820190508181036000830152612152818861201c565b9050818103602083015261216681876120da565b9050818103604083015261217a81866120da565b9050818103606083015261218e81856120da565b905081810360808301526121a2818461201c565b90509695505050505050565b6121b781611f88565b81146121c257600080fd5b50565b6000813590506121d4816121ae565b92915050565b600080604083850312156121f1576121f0611f20565b5b60006121ff85828601611f46565b9250506020612210858286016121c5565b9150509250929050565b61222381611f25565b82525050565b600060208201905061223e600083018461221a565b92915050565b600061010082019050818103600083015261225f818b61201c565b90508181036020830152612273818a6120da565b9050818103604083015261228781896120da565b9050818103606083015261229b81886120da565b905081810360808301526122af818761201c565b905081810360a08301526122c381866120da565b905081810360c08301526122d781856120da565b905081810360e08301526122eb81846120da565b90509998505050505050505050565b6000806040838503121561231157612310611f20565b5b600061231f85828601611f46565b925050602061233085828601611f46565b9150509250929050565b60008115159050919050565b61234f8161233a565b82525050565b600060208201905061236a6000830184612346565b92915050565b60006020828403121561238657612385611f20565b5b6000612394848285016121c5565b91505092915050565b600060e0820190506123b2600083018a611f92565b6123bf602083018961221a565b6123cc604083018861221a565b6123d9606083018761221a565b6123e66080830186611f92565b6123f360a083018561221a565b61240060c083018461221a565b98975050505050505050565b600080600080600080600060e0888a03121561242b5761242a611f20565b5b60006124398a828b01611f46565b975050602061244a8a828b01611f46565b965050604061245b8a828b01611f46565b955050606061246c8a828b01611f46565b945050608061247d8a828b016121c5565b93505060a061248e8a828b01611f46565b92505060c061249f8a828b01611f46565b91505092959891949750929550565b600060608201905081810360008301526124c881866120da565b905081810360208301526124dc81856120da565b905081810360408301526124f081846120da565b9050949350505050565b600060e0820190508181036000830152612514818a61201c565b9050818103602083015261252881896120da565b9050818103604083015261253c81886120da565b9050818103606083015261255081876120da565b90508181036080830152612564818661201c565b905081810360a083015261257881856120da565b905081810360c083015261258c81846120da565b905098975050505050505050565b6000610100820190506125b0600083018b611f92565b6125bd602083018a61221a565b6125ca604083018961221a565b6125d7606083018861221a565b6125e46080830187611f92565b6125f160a083018661221a565b6125fe60c083018561221a565b61260b60e083018461221a565b9998505050505050505050565b7f4e487b7100000000000000000000000000000000000000000000000000000000600052604160045260246000fd5b7f4e487b7100000000000000000000000000000000000000000000000000000000600052603260045260246000fd5b7f4e487b7100000000000000000000000000000000000000000000000000000000600052601160045260246000fd5b60006126b082611f88565b91507fffffffffffffffffffffffffffffffffffffffffffffffffffffffffffffffff8214156126e3576126e2612676565b5b60018201905091905056fea26469706673582212205bd9b0b74891c144e3b5691bf4071be98384caaf54418f8e851b08c8da53ff3d64736f6c634300080c0033",
  "immutableReferences": {},
  "source": "pragma solidity ^0.8.12;\n\ncontract Medicine {\n\n    uint256 pharmacyCount;\n    uint256 medicineCount;\n\n    struct pharmacy{\n        uint256 pharmacyId;\n        bytes32 pharmacyName;\n        bytes32 pharmacyLicense;\n        bytes32 pharmacyCode;\n        uint256 pharmacyPhone;\n        bytes32 pharmacistName;\n        bytes32 pharmacyAddress;\n    }\n    mapping(uint=>pharmacy) public pharmacies;\n\n    struct medicineItem{\n        uint256 medicineId;\n        bytes32 medicineBatch;\n        bytes32 medicineName;\n        bytes32 medicineBrand;\n        uint256 medicinePrice;\n        bytes32 medicineStatus;\n        bytes32 expiryDate;\n        bytes32 composition;\n    }\n\n    mapping(uint256=>medicineItem) public medicineItems;\n    mapping(bytes32=>uint256) public medicineMap;\n    mapping(bytes32=>bytes32) public medicinesManufactured;\n    mapping(bytes32=>bytes32) public medicinesForSale;\n    mapping(bytes32=>bytes32) public medicinesSold;\n    mapping(bytes32=>bytes32[]) public medicinesWithPharmacy;\n    mapping(bytes32=>bytes32[]) public medicinesWithPatient;\n    mapping(bytes32=>bytes32[]) public pharmaciesWithManufacturer;\n\n\n    //PHARMACY SECTION\n\n    function addPharmacy(bytes32 _manufacturerId, bytes32 _pharmacyName, bytes32 _pharmacyLicense, bytes32 _pharmacyCode,\n    uint256 _pharmacyPhone, bytes32 _pharmacistName, bytes32 _pharmacyAddress) public{\n        pharmacies[pharmacyCount] = pharmacy(pharmacyCount, _pharmacyName, _pharmacyLicense, _pharmacyCode,\n        _pharmacyPhone, _pharmacistName, _pharmacyAddress);\n        pharmacyCount++;\n\n        pharmaciesWithManufacturer[_manufacturerId].push(_pharmacyCode);\n    }\n\n\n    function viewPharmacies () public view returns(uint256[] memory, bytes32[] memory, bytes32[] memory, bytes32[] memory, uint256[] memory, bytes32[] memory, bytes32[] memory) {\n        uint256[] memory ids = new uint256[](pharmacyCount);\n        bytes32[] memory pnames = new bytes32[](pharmacyCount);\n        bytes32[] memory plicense = new bytes32[](pharmacyCount);\n        bytes32[] memory pcodes = new bytes32[](pharmacyCount);\n        uint256[] memory pphones = new uint256[](pharmacyCount);\n        bytes32[] memory pharmacists = new bytes32[](pharmacyCount);\n        bytes32[] memory paddress = new bytes32[](pharmacyCount);\n        \n        for(uint i=0; i<pharmacyCount; i++){\n            ids[i] = pharmacies[i].pharmacyId;\n            pnames[i] = pharmacies[i].pharmacyName;\n            plicense[i] = pharmacies[i].pharmacyLicense;\n            pcodes[i] = pharmacies[i].pharmacyCode;\n            pphones[i] = pharmacies[i].pharmacyPhone;\n            pharmacists[i] = pharmacies[i].pharmacistName;\n            paddress[i] = pharmacies[i].pharmacyAddress;\n        }\n        return(ids, pnames, plicense, pcodes, pphones, pharmacists, paddress);\n    }\n\n    //MEDICINE SECTION\n\n    function addMedicine(bytes32 _manufactuerID, bytes32 _medicineName, bytes32 _medicineBatch, bytes32 _medicineBrand,\n    uint256 _medicinePrice, bytes32 _expiryDate, bytes32 _composition) public{\n        medicineItems[medicineCount] = medicineItem(medicineCount, _medicineBatch, _medicineName, _medicineBrand,\n        _medicinePrice, \"Available\", _expiryDate, _composition);\n        medicineMap[_medicineBatch] = medicineCount;\n        medicineCount++;\n        medicinesManufactured[_medicineBatch] = _manufactuerID;\n    }\n\n\n    function viewMedicineItems () public view returns(uint256[] memory, bytes32[] memory, bytes32[] memory, bytes32[] memory, uint256[] memory, bytes32[] memory, bytes32[] memory, bytes32[] memory) {\n        uint256[] memory mids = new uint256[](medicineCount);\n        bytes32[] memory mBatches = new bytes32[](medicineCount);\n        bytes32[] memory mnames = new bytes32[](medicineCount);\n        bytes32[] memory mbrands = new bytes32[](medicineCount);\n        uint256[] memory mprices = new uint256[](medicineCount);\n        bytes32[] memory mstatus = new bytes32[](medicineCount);\n        bytes32[] memory mexpiry = new bytes32[](medicineCount);\n        bytes32[] memory mcomposition = new bytes32[](medicineCount);\n        \n        for(uint i=0; i<medicineCount; i++){\n            mids[i] = medicineItems[i].medicineId;\n            mBatches[i] = medicineItems[i].medicineBatch;\n            mnames[i] = medicineItems[i].medicineName;\n            mbrands[i] = medicineItems[i].medicineBrand;\n            mprices[i] = medicineItems[i].medicinePrice;\n            mstatus[i] = medicineItems[i].medicineStatus;\n            mexpiry[i] = medicineItems[i].expiryDate;\n            mcomposition[i] = medicineItems[i].composition;\n        }\n        return(mids, mBatches, mnames, mbrands, mprices, mstatus, mexpiry, mcomposition);\n    }\n\n    //SELL Medicine\n\n    function manufacturerSellMedicine(bytes32 _medicineBatch, bytes32 _pharmacyCode) public{\n        medicinesWithPharmacy[_pharmacyCode].push(_medicineBatch);\n        medicinesForSale[_medicineBatch] = _pharmacyCode;\n    }\n\n    function pharmacySellMedicine(bytes32 _medicineBatch, bytes32 _patientCode) public{   \n        bytes32 mStatus;\n        uint256 i;\n        uint256 j=0;\n\n        if(medicineCount>0) {\n            for(i=0;i<medicineCount;i++) {\n                if(medicineItems[i].medicineBatch == _medicineBatch) {\n                    j=i;\n                }\n            }\n        }\n\n        mStatus = medicineItems[j].medicineStatus;\n        if(mStatus == \"Available\") {\n            medicineItems[j].medicineStatus = \"Sold\";\n            medicinesWithPatient[_patientCode].push(_medicineBatch);\n            medicinesSold[_medicineBatch] = _patientCode;\n        }\n    }\n\n    // Split the query function into two parts to avoid stack too deep error\n    function queryMedicinesBasicInfo(bytes32 _pharmacyCode) public view returns(uint256[] memory, bytes32[] memory, bytes32[] memory, bytes32[] memory, uint256[] memory){\n        bytes32[] memory medicineBatches = medicinesWithPharmacy[_pharmacyCode];\n        uint256 k=0;\n\n        uint256[] memory mids = new uint256[](medicineCount);\n        bytes32[] memory mBatches = new bytes32[](medicineCount);\n        bytes32[] memory mnames = new bytes32[](medicineCount);\n        bytes32[] memory mbrands = new bytes32[](medicineCount);\n        uint256[] memory mprices = new uint256[](medicineCount);\n\n        for(uint i=0; i<medicineCount; i++){\n            for(uint j=0; j<medicineBatches.length; j++){\n                if(medicineItems[i].medicineBatch==medicineBatches[j]){\n                    mids[k] = medicineItems[i].medicineId;\n                    mBatches[k] = medicineItems[i].medicineBatch;\n                    mnames[k] = medicineItems[i].medicineName;\n                    mbrands[k] = medicineItems[i].medicineBrand;\n                    mprices[k] = medicineItems[i].medicinePrice;\n                    k++;\n                }\n            }\n        }\n        return(mids, mBatches, mnames, mbrands, mprices);\n    }\n\n    function queryMedicinesDetailInfo(bytes32 _pharmacyCode) public view returns(bytes32[] memory, bytes32[] memory, bytes32[] memory){\n        bytes32[] memory medicineBatches = medicinesWithPharmacy[_pharmacyCode];\n        uint256 k=0;\n\n        bytes32[] memory mstatus = new bytes32[](medicineCount);\n        bytes32[] memory mexpiry = new bytes32[](medicineCount);\n        bytes32[] memory mcomposition = new bytes32[](medicineCount);\n\n        for(uint i=0; i<medicineCount; i++){\n            for(uint j=0; j<medicineBatches.length; j++){\n                if(medicineItems[i].medicineBatch==medicineBatches[j]){\n                    mstatus[k] = medicineItems[i].medicineStatus;\n                    mexpiry[k] = medicineItems[i].expiryDate;\n                    mcomposition[k] = medicineItems[i].composition;\n                    k++;\n                }\n            }\n        }\n        return(mstatus, mexpiry, mcomposition);\n    }\n\n    function queryPharmaciesList (bytes32 _manufacturerCode) public view returns(uint256[] memory, bytes32[] memory, bytes32[] memory, bytes32[] memory, uint256[] memory, bytes32[] memory, bytes32[] memory) {\n        bytes32[] memory pharmacyCodes = pharmaciesWithManufacturer[_manufacturerCode];\n        uint256 k=0;\n        uint256[] memory ids = new uint256[](pharmacyCount);\n        bytes32[] memory pnames = new bytes32[](pharmacyCount);\n        bytes32[] memory plicense = new bytes32[](pharmacyCount);\n        bytes32[] memory pcodes = new bytes32[](pharmacyCount);\n        uint256[] memory pphones = new uint256[](pharmacyCount);\n        bytes32[] memory pharmacists = new bytes32[](pharmacyCount);\n        bytes32[] memory paddress = new bytes32[](pharmacyCount);\n        \n        for(uint i=0; i<pharmacyCount; i++){\n            for(uint j=0; j<pharmacyCodes.length; j++){\n                if(pharmacies[i].pharmacyCode==pharmacyCodes[j]){\n                    ids[k] = pharmacies[i].pharmacyId;\n                    pnames[k] = pharmacies[i].pharmacyName;\n                    plicense[k] = pharmacies[i].pharmacyLicense;\n                    pcodes[k] = pharmacies[i].pharmacyCode;\n                    pphones[k] = pharmacies[i].pharmacyPhone;\n                    pharmacists[k] = pharmacies[i].pharmacistName;\n                    paddress[k] = pharmacies[i].pharmacyAddress;\n                    k++;\n                    break;\n               }\n            }\n        }\n\n        return(ids, pnames, plicense, pcodes, pphones, pharmacists, paddress);\n    }\n\n    function getPurchaseHistory(bytes32 _patientCode) public view returns (bytes32[] memory, bytes32[] memory, bytes32[] memory){\n        bytes32[] memory medicineBatches = medicinesWithPatient[_patientCode];\n        bytes32[] memory pharmacyCodes = new bytes32[](medicineBatches.length);\n        bytes32[] memory manufacturerCodes = new bytes32[](medicineBatches.length);\n        for(uint i=0; i<medicineBatches.length; i++){\n            pharmacyCodes[i] = medicinesForSale[medicineBatches[i]];\n            manufacturerCodes[i] = medicinesManufactured[medicineBatches[i]];\n        }\n        return (medicineBatches, pharmacyCodes, manufacturerCodes);\n    }\n\n    //Verify\n\n    function verifyMedicine(bytes32 _medicineBatch, bytes32 _patientCode) public view returns(bool){\n        if(medicinesSold[_medicineBatch] == _patientCode){\n            return true;\n        }\n        else{\n            return false;\n        }\n    }\n}",
  "sourcePath": "S:\\Projects\\Fake-medicine\\Fake-Product-Identification-master\\contracts\\Medicine.sol",
  "compiler": {
    "name": "solc",
    "version": "0.8.12+commit.f00d7308.Emscripten.clang"
  },
  "schemaVersion": "3.4.16",
  "updatedAt": "2025-09-21T05:29:51.525Z",
  "devdoc": {
    "kind": "dev",
    "methods": {},
    "version": 1
  },
  "userdoc": {
    "kind": "user",
    "methods": {},
    "version": 1
  }
}